{
  "transactions": [
    {
      "hash": "0x34705fbcee30e42ab4209bfd8feaa64ebbcc072adca343b55496e975992fcb02",
      "transactionType": "CALL",
      "contractName": null,
      "contractAddress": "0x779877A7B0D9E8603169DdbD7836e478b4624789",
      "function": "transferAndCall(address,uint256,bytes)",
      "arguments": [
        "0x9DdfaCa8183c41ad55329BdeeD9F6A8d53168B1B",
        "3000000000000000000",
        "0xc6162037cbf6f0bf1dbd9cc5f60c96eac3a5f98d724562dabc2f00913958c30d"
      ],
      "transaction": {
        "type": "0x02",
        "from": "0x2373a942febc0ee428b266bdd58275794e7f1553",
        "to": "0x779877a7b0d9e8603169ddbd7836e478b4624789",
        "gas": "0x1a8ee",
        "value": "0x0",
        "data": "0x4000aea00000000000000000000000009ddfaca8183c41ad55329bdeed9f6a8d53168b1b00000000000000000000000000000000000000000000000029a2241af62c000000000000000000000000000000000000000000000000000000000000000000600000000000000000000000000000000000000000000000000000000000000020c6162037cbf6f0bf1dbd9cc5f60c96eac3a5f98d724562dabc2f00913958c30d",
        "nonce": "0xac",
        "accessList": []
      },
      "additionalContracts": [],
      "isFixedGasLimit": false
    }
  ],
  "receipts": [
    {
      "transactionHash": "0x34705fbcee30e42ab4209bfd8feaa64ebbcc072adca343b55496e975992fcb02",
      "transactionIndex": "0xe",
      "blockHash": "0x2526e8948a907ca2617b66e63facb2faa49e3c75611efc4b4f0ee130644ddbdc",
      "blockNumber": "0x612951",
      "from": "0x2373a942FEbC0ee428b266bDD58275794E7f1553",
      "to": "0x779877A7B0D9E8603169DdbD7836e478b4624789",
      "cumulativeGasUsed": "0x1823f1",
      "gasUsed": "0x133a5",
      "contractAddress": null,
      "logs": [
        {
          "address": "0x779877A7B0D9E8603169DdbD7836e478b4624789",
          "topics": [
            "0xddf252ad1be2c89b69c2b068fc378daa952ba7f163c4a11628f55a4df523b3ef",
            "0x0000000000000000000000002373a942febc0ee428b266bdd58275794e7f1553",
            "0x0000000000000000000000009ddfaca8183c41ad55329bdeed9f6a8d53168b1b"
          ],
          "data": "0x00000000000000000000000000000000000000000000000029a2241af62c0000",
          "blockHash": "0x2526e8948a907ca2617b66e63facb2faa49e3c75611efc4b4f0ee130644ddbdc",
          "blockNumber": "0x612951",
          "transactionHash": "0x34705fbcee30e42ab4209bfd8feaa64ebbcc072adca343b55496e975992fcb02",
          "transactionIndex": "0xe",
          "logIndex": "0x18",
          "removed": false
        },
        {
          "address": "0x779877A7B0D9E8603169DdbD7836e478b4624789",
          "topics": [
            "0xe19260aff97b920c7df27010903aeb9c8d2be5d310a2c67824cf3f15396e4c16",
            "0x0000000000000000000000002373a942febc0ee428b266bdd58275794e7f1553",
            "0x0000000000000000000000009ddfaca8183c41ad55329bdeed9f6a8d53168b1b"
          ],
          "data": "0x00000000000000000000000000000000000000000000000029a2241af62c000000000000000000000000000000000000000000000000000000000000000000400000000000000000000000000000000000000000000000000000000000000020c6162037cbf6f0bf1dbd9cc5f60c96eac3a5f98d724562dabc2f00913958c30d",
          "blockHash": "0x2526e8948a907ca2617b66e63facb2faa49e3c75611efc4b4f0ee130644ddbdc",
          "blockNumber": "0x612951",
          "transactionHash": "0x34705fbcee30e42ab4209bfd8feaa64ebbcc072adca343b55496e975992fcb02",
          "transactionIndex": "0xe",
          "logIndex": "0x19",
          "removed": false
        },
        {
          "address": "0x9DdfaCa8183c41ad55329BdeeD9F6A8d53168B1B",
          "topics": [
            "0x1ced9348ff549fceab2ac57cd3a9de38edaaab274b725ee82c23e8fc8c4eec7a",
            "0xc6162037cbf6f0bf1dbd9cc5f60c96eac3a5f98d724562dabc2f00913958c30d"
          ],
          "data": "0x000000000000000000000000000000000000000000000000000000000000000000000000000000000000000000000000000000000000000029a2241af62c0000",
          "blockHash": "0x2526e8948a907ca2617b66e63facb2faa49e3c75611efc4b4f0ee130644ddbdc",
          "blockNumber": "0x612951",
          "transactionHash": "0x34705fbcee30e42ab4209bfd8feaa64ebbcc072adca343b55496e975992fcb02",
          "transactionIndex": "0xe",
          "logIndex": "0x1a",
          "removed": false
        }
      ],
      "status": "0x1",
      "logsBloom": "0x00000004000020000000000000000000000000000020000000000000020000000000000000000000000000000000000000000000000000000000000000000000000000000000000000000008000000000000000000000000000020000020000018000000000000000000000000000000000000000001000000000010000040000000000000000000000000010000800000000020000000000000000000000000000000000000000000000000010000000000000000000000000004000000000000000002000000000000000000000000800000000000000100000000000000000010000000040000800000000000000000000000000000000000000000000080",
      "type": "0x2",
      "effectiveGasPrice": "0x875928368"
    }
  ],
  "libraries": [],
  "pending": [],
  "returns": {},
  "timestamp": 1721824225,
  "chain": 11155111,
  "commit": "979d264"
}